:100000000C942A000C943C000C943C000C943C0092
:100010000C943C000C943C000C943C000C94D101DA
:100020000C943C000C943C000C943C000C943C0060
:100030000C943C000C943C000C943C000C943C0050
:100040000C943C000C943C000C943C000C943C0040
:100050000C943C0011241FBECFE5D8E0DEBFCDBF1D
:1000600010E0A0E6B0E001C01D92A736B107E1F7AD
:100070000E94BA010C94D8020C94000080FF02C0C8
:10008000DC9A01C0DC9881FF02C0DD9A01C0DD98D6
:1000900082FF02C0DE9A01C0DE9883FF02C0DF9AB1
:1000A0000895DF9808951F93182FD79AD69AD59A56
:1000B000D49ADB9A82958F700E943E00DB98DB9A7F
:1000C000812F0E943E00DB9880EF90E00197F1F7CE
:1000D0001F910895DA980E9453000895DA9A0E94B9
:1000E00053000895982F8058883008F49770892F0E
:1000F0000E946E000895CF93DF93EC0102C00E942E
:10010000720089918823D9F7DF91CF910895CF9319
:10011000DF93EC0102C00E947200FE0121968491DF
:100120008823C9F7DF91CF9108951F93CF93DF9371
:10013000EB0190E0877090700896880F880F880F09
:100140000E946A0010E089910E946E001F5F1830C3
:10015000D1F7DF91CF911F9108950F931F93CF9304
:10016000DF938B0190E0877090700896880F880F5E
:10017000880F0E946A00C0E0D0E0F801EC0FFD1F7C
:10018000E4918E2F0E946E002196C830D105A9F708
:10019000DF91CF911F910F910895813009F480E490
:1001A0006058860F0E946A00089581E00E946A00EC
:1001B00088E496E20197F1F708950F931F93D79A79
:1001C000D69AD59AD49AD29AD39ADA9ADB9A80E3BD
:1001D00095E70197F1F7DB98DA98DB9A83E00E94C4
:1001E0003E00DB9888E090E20197F1F7DB9A83E02C
:1001F0000E943E00DB9808EC10E0C8010197F1F77F
:10020000DB9A83E00E943E00DB98C8010197F1F77A
:10021000DB9A82E00E943E00DB98C8010197F1F76B
:1002200088E20E946A0088E00E946A008CE00E94D6
:100230006A0086E00E946A000E94D5001F910F911B
:1002400008950F931F93CF93DF938B0190E08770F6
:1002500090700896880F880F880F0E946A00C0E08F
:10026000D0E0C8018C0F9D1F0E948A020E946E0080
:100270002196C830D105A9F7DF91CF911F910F9139
:100280000895CF93DF93EC0121960E948A02982F64
:1002900081508E3F28F4892F0E947200CE01F3CF47
:1002A000DF91CF910895DF93CF93CDB7DEB76197FC
:1002B0000FB6F894DEBF0FBECDBFAE014F5F5F4FEC
:1002C00020E130E00E9456020E947B0061960FB64A
:1002D000F894DEBF0FBECDBFCF91DF910895DF93BD
:1002E000CF93CDB7DEB761970FB6F894DEBF0FBEE0
:1002F000CDBFBE016F5F7F4F4AE050E00E943502E4
:100300000E947B0061960FB6F894DEBF0FBECDBF92
:10031000CF91DF91089582EB8093610088EA80930A
:1003200062008FEF80936000089581E49FE09093D6
:100330006600809365000895BB9A83B7896783BF81
:10034000809160008CBF82E08093630008958FB538
:100350008FBD8EB58D608EBD1DBC1CBC89B7806104
:1003600089BF80916500909166009BBD8ABD109207
:100370006400089582EB8093610088EA80936200B4
:100380008FEF8093600081E49FE0909366008093FC
:1003900065000E949C010E94A7010E94DD007894E4
:1003A000FFCF1F920F920FB60F9211242F933F93FE
:1003B0004F935F936F937F938F939F93AF93BF936D
:1003C000EF93FF93809164008F5F8093640080E0DF
:1003D00061E00E94CD008091640090E00E946F0176
:1003E00080916400853771F480916300823051F40C
:1003F000809162008CBF1092640081E08093630062
:100400000E94D50080916400813069F4809163007E
:10041000813049F4809161008CBF10926400109289
:1004200063000E94D50090916400923069F480913D
:100430006300882349F4809160008CBF10926400AF
:10044000909363000E94D500FF91EF91BF91AF910F
:100450009F918F917F916F915F914F913F912F91DC
:100460000F900FBE0F901F901895FB019F01E8940D
:100470004230C4F04532B4F44A3029F497FB1EF4FC
:10048000909581959F4F642F77270E94A202805DEF
:100490008A330CF0895D8193CB010097A1F716F4A4
:1004A0005DE251931082C9010C949202FA01CF933C
:1004B000FF93EF93223044F1253234F5C22FE894B4
:1004C000CA3049F497FB3EF49095809570956195FC
:1004D0007F4F8F4F9F4F2C2F332744275527FF9354
:1004E000EF930E94B602EF91FF91605D6A330CF0CA
:1004F000695D6193B901CA016050704080409040CD
:1005000051F716F4CDE2C19310828F919F91CF9154
:100510000C949202E199FECF9FBB8EBBE09A992783
:100520008DB30895DC01FC01672F71917723E1F70A
:10053000329704C07C916D9370836291AE17BF07B0
:10054000C8F30895AA1BBB1B51E107C0AA1FBB1F1C
:10055000A617B70710F0A61BB70B881F991F5A954F
:10056000A9F780959095BC01CD010895A1E21A2EBE
:10057000AA1BBB1BFD010DC0AA1FBB1FEE1FFF1F47
:10058000A217B307E407F50720F0A21BB30BE40B97
:10059000F50B661F771F881F991F1A9469F76095DE
:1005A0007095809590959B01AC01BD01CF01089598
:0405B000F894FFCFED
:00000001FF
