:100000000C942A000C943C000C943C000C943C0092
:100010000C943C000C943C000C943C000C94920218
:100020000C943C000C943C000C943C000C943C0060
:100030000C943C000C94AF000C9473000C944A0098
:100040000C9400030C943C000C943C000C943C0079
:100050000C943C0011241FBECFE5D8E0DEBFCDBF1D
:1000600010E0A0E6B0E001C01D92AB39B107E1F7A6
:100070000E9473020C94E9030C94000090BD89B9AE
:1000800088E18AB986E880BD8A9A929A8AB1886D99
:100090008AB908951F920F920FB60F921124929869
:1000A0000F900FBE0F901F901895282F9091600011
:1000B0009F5F9F70809161009817E1F3E92FF0E056
:1000C000EE59FF4F208390936000559A0895CF9387
:1000D000DF93EC0102C00E94550089918823D9F773
:1000E000DF91CF9108951F920F920FB60F921124B6
:1000F0008F939F93EF93FF939091600080916100A5
:10010000981771F0809161008F5F8F70809361000C
:10011000E0916100F0E0EE59FF4F80818CB901C0A1
:100120005598FF91EF919F918F910F900FBE0F9077
:100130001F9018959091720080917300981711F498
:1001400080E00895809173008F5F8F7180937300BA
:10015000E0917300F0E0EC58FF4F808108951F920A
:100160000F920FB60F9211248F939F93EF93FF93EB
:100170009CB1E0917200EF5FEF7180917300E8171E
:1001800031F0E0937200F0E0EC58FF4F9083FF9164
:10019000EF919F918F910F900FBE0F901F90189528
:1001A0000F931F93DF93CF93CDB7DEB761970FB651
:1001B000F894DEBF0FBECDBFAB018E010F5F1F4FA6
:1001C000B8010E944603C8010E94670061960FB6FD
:1001D000F894DEBF0FBECDBFCF91DF911F910F917D
:1001E000089580FF02C0DC9A01C0DC9881FF02C044
:1001F000DD9A01C0DD9882FF02C0DE9A01C0DE9860
:1002000083FF02C0DF9A0895DF9808951F93182F87
:10021000D79AD69AD59AD49ADB9A82958F700E94F3
:10022000F100DB98DB9A812F0E94F100DB9880EFD0
:1002300090E00197F1F71F910895DA980E94060166
:100240000895DA9A0E9406010895982F8058883000
:1002500008F49770892F0E9421010895CF93DF93AE
:10026000EC0102C00E94250189918823D9F7DF9112
:10027000CF910895CF93DF93EC0102C00E94250136
:10028000FE01219684918823C9F7DF91CF910895CB
:100290001F93CF93DF93EB0190E0877090700896E7
:1002A000880F880F880F0E941D0110E089910E941D
:1002B00021011F5F1830D1F7DF91CF911F91089571
:1002C0000F931F93CF93DF938B0190E08770907013
:1002D0000896880F880F880F0E941D01C0E0D0E0AB
:1002E000F801EC0FFD1FE4918E2F0E942101219651
:1002F000C830D105A9F7DF91CF911F910F910895D3
:10030000813009F480E46058860F0E941D01089531
:1003100081E00E941D0188E496E20197F1F70895BB
:100320000F931F93D79AD69AD59AD49AD29AD39AE2
:10033000DA9ADB9A80E395E70197F1F7DB98DA9890
:10034000DB9A83E00E94F100DB9888E090E201975D
:10035000F1F7DB9A83E00E94F100DB9808EC10E0F3
:10036000C8010197F1F7DB9A83E00E94F100DB9866
:10037000C8010197F1F7DB9A82E00E94F100DB9857
:10038000C8010197F1F788E20E941D0188E00E94F0
:100390001D018CE00E941D0186E00E941D010E944B
:1003A00088011F910F9108950F931F93CF93DF93AF
:1003B0008B0190E0877090700896880F880F880FE7
:1003C0000E941D01C0E0D0E0C8018C0F9D1F0E945B
:1003D0009B030E9421012196C830D105A9F7DF9126
:1003E000CF911F910F910895CF93DF93EC01219648
:1003F0000E949B03982F81508E3F28F4892F0E94E2
:100400002501CE01F3CFDF91CF910895DF93CF93F4
:10041000CDB7DEB761970FB6F894DEBF0FBECDBF84
:10042000AE014F5F5F4F20E130E00E9467030E9402
:100430002E0161960FB6F894DEBF0FBECDBFCF91EF
:10044000DF910895DF93CF93CDB7DEB761970FB6F5
:10045000F894DEBF0FBECDBFBE016F5F7F4F4AE095
:1004600050E00E9446030E942E0161960FB6F89458
:10047000DEBF0FBECDBFCF91DF91089582EB809399
:10048000950088EA809396008FEF809394000895FA
:1004900081E49FE090939A00809399000895BB9A1D
:1004A00083B7896783BF809194008CBF82E080937B
:1004B000970008958FB58FBD8EB58D608EBD1DBC24
:1004C0001CBC89B7806189BF8091990090919A0086
:1004D0009BBD8ABD1092980008953D9A86B18F68A1
:1004E00086B9D0980895BC9AC49883E390E00E949E
:1004F0003E0082EB8093950088EA809396008FEF10
:100500008093940081E49FE090939A0080939900F7
:100510000E944F020E945A020E946D020E949001A6
:100520007894FFCF1F920F920FB60F9211242F9342
:100530003F934F935F936F937F938F939F93AF936B
:10054000BF93EF93FF93809198008F5F8093980003
:1005500080E061E00E9480018091980090E00E941C
:100560002202809198008A3071F480919700823045
:1005700051F4809196008CBF1092980081E0809396
:1005800097000E94880180919800813099F48091B1
:100590009700813079F488B390E1892788BB8091F6
:1005A00095008CBF3E9B369A10929800109297004F
:1005B0000E94880120919800223089F48091970050
:1005C000882369F488B390E1892788BB80919400DF
:1005D0008CBF10929800209397000E948801FF9191
:1005E000EF91BF91AF919F918F917F916F915F91AB
:1005F0004F913F912F910F900FBE0F901F90189524
:100600001F920F920FB60F9211240F931F932F93E7
:100610003F934F935F936F937F938F939F93AF938A
:10062000BF93EF93FF9381E061E00E94800104B1EA
:1006300085B1029506950695037010E090E0880F4D
:10064000991F880F991F082B192BC8010E9422029D
:10065000C8016AE070E00E94D0008DE00E94550061
:100660008AE00E945500FF91EF91BF91AF919F9159
:100670008F917F916F915F914F913F912F911F913A
:100680000F910F900FBE0F901F901895FB019F01C7
:10069000E8944230C4F04532B4F44A3029F497FB70
:1006A0001EF4909581959F4F642F77270E94B30386
:1006B000805D8A330CF0895D8193CB010097A1F7AF
:1006C00016F45DE251931082C9010C94A303FA0160
:1006D000CF93FF93EF93223044F1253234F5C22FAC
:1006E000E894CA3049F497FB3EF490958095709554
:1006F00061957F4F8F4F9F4F2C2F332744275527CE
:10070000FF93EF930E94C703EF91FF91605D6A33FF
:100710000CF0695D6193B901CA016050704080407E
:10072000904051F716F4CDE2C19310828F919F91C2
:10073000CF910C94A303E199FECF9FBB8EBBE09AAF
:1007400099278DB30895DC01FC01672F7191772300
:10075000E1F7329704C07C916D9370836291AE177C
:10076000BF07C8F30895AA1BBB1B51E107C0AA1F0E
:10077000BB1FA617B70710F0A61BB70B881F991F42
:100780005A95A9F780959095BC01CD010895A1E2F5
:100790001A2EAA1BBB1BFD010DC0AA1FBB1FEE1FFB
:1007A000FF1FA217B307E407F50720F0A21BB30B46
:1007B000E40BF50B661F771F881F991F1A9469F7C2
:1007C00060957095809590959B01AC01BD01CF011E
:0607D0000895F894FFCF2C
:00000001FF
