:100000000C942A000C943C000C943C000C943C0092
:100010000C943C000C943C000C943C000C94EA01C1
:100020000C943C000C943C000C943C000C943C0060
:100030000C943C000C94DD020C94A1020C94780208
:100040000C9444000C943C000C943C000C943C0038
:100050000C943C0011241FBECFE5D8E0DEBFCDBF1D
:1000600010E0A0E6B0E001C01D92AD39B107E1F7A4
:100070000E94CF010C94D4030C9400003D9A86B1E9
:100080008F6886B9D09808951F920F920FB60F927D
:1000900011242F933F938F939F9384B125B1829521
:1000A00086958695837090E030E0220F331F220FF3
:1000B000331F822B932B90936200809361009F915A
:1000C0008F913F912F910F900FBE0F901F90189519
:1000D00080FF02C0DC9A01C0DC9881FF02C0DD9A7B
:1000E00001C0DD9882FF02C0DE9A01C0DE9883FF66
:1000F00002C0DF9A0895DF9808951F93182FD79AAA
:10010000D69AD59AD49ADB9A82958F700E9468000D
:10011000DB98DB9A812F0E946800DB9880EF90E0EB
:100120000197F1F71F910895DA980E947D000895D4
:10013000DA9A0E947D000895982F8058883008F43C
:100140009770892F0E9498000895CF93DF93EC0158
:1001500002C00E949C0089918823D9F7DF91CF913A
:100160000895CF93DF93EC0102C00E949C00FE0132
:10017000219684918823C9F7DF91CF9108951F9329
:10018000CF93DF93EB0190E0877090700896880F13
:10019000880F880F0E94940010E089910E949800B7
:1001A0001F5F1830D1F7DF91CF911F9108950F9302
:1001B0001F93CF93DF938B0190E087709070089628
:1001C000880F880F880F0E949400C0E0D0E0F801EB
:1001D000EC0FFD1FE4918E2F0E9498002196C830ED
:1001E000D105A9F7DF91CF911F910F91089581302B
:1001F00009F480E46058860F0E949400089581E01D
:100200000E94940088E496E20197F1F708950F9315
:100210001F93D79AD69AD59AD49AD29AD39ADA9A21
:10022000DB9A80E395E70197F1F7DB98DA98DB9AA0
:1002300083E00E946800DB9888E090E20197F1F784
:10024000DB9A83E00E946800DB9808EC10E0C801AC
:100250000197F1F7DB9A83E00E946800DB98C80100
:100260000197F1F7DB9A82E00E946800DB98C801F1
:100270000197F1F788E20E94940088E00E949400C0
:100280008CE00E94940086E00E9494000E94FF008F
:100290001F910F9108950F931F93CF93DF938B01BD
:1002A00090E0877090700896880F880F880F0E94E2
:1002B0009400C0E0D0E0C8018C0F9D1F0E9486030F
:1002C0000E9498002196C830D105A9F7DF91CF91FF
:1002D0001F910F910895CF93DF93EC0121960E9417
:1002E0008603982F81508E3F28F4892F0E949C000E
:1002F000CE01F3CFDF91CF910895DF93CF93CDB7A8
:10030000DEB761970FB6F894DEBF0FBECDBFAE016A
:100310004F5F5F4F20E130E00E9452030E94A50032
:1003200061960FB6F894DEBF0FBECDBFCF91DF91BF
:100330000895DF93CF93CDB7DEB761970FB6F894EA
:10034000DEBF0FBECDBFBE016F5F7F4F4AE050E002
:100350000E9431030E94A50061960FB6F894DEBF9B
:100360000FBECDBFCF91DF91089581E49FE09093C0
:1003700065008093640008958FB58FBD8EB58D6044
:100380008EBD1DBC1CBC89B7806189BF8091640093
:10039000909165009BBD8ABD109263000895BC9A40
:1003A000C49883E390E00E946C020E94270381E4DA
:1003B0009FE090936500809364000E941F030E9459
:1003C000BC010E943E000E94070182E08093600011
:1003D0007894FFCF1F920F920FB60F9211242F9394
:1003E0003F934F935F936F937F938F939F93AF93BD
:1003F000BF93EF93FF93809163008F5F80936300BF
:1004000080E061E00E94F7008091630090E00E942C
:100410009901809163008A3061F48091600082309C
:1004200041F4809168008CBF1092630081E080935A
:10043000600080916300813099F480916000813088
:1004400079F488B390E1892788BB809167008CBFDD
:100450003E9B369A10926300109260000E94FF004B
:1004600020916300223039F580916000882319F5CE
:1004700088B390E1892788BB809166008CBF109279
:1004800063002093600081E061E00E94F7008091AA
:100490006100909162000E949901809161009091A9
:1004A00062006AE070E00E94FE028DE00E9483021A
:1004B0008AE00E948302FF91EF91BF91AF919F91DB
:1004C0008F917F916F915F914F913F912F910F90FD
:1004D0000FBE0F901F90189590BD89B988E18AB919
:1004E00086E880BD8A9A929A8AB1886D8AB9089501
:1004F0001F920F920FB60F92112492980F900FBE79
:100500000F901F901895282F909169009F5F9F7002
:1005100080916A009817E1F3E92FF0E0E559FF4F69
:10052000208390936900559A0895CF93DF93EC014F
:1005300002C00E94830289918823D9F7DF91CF916D
:1005400008951F920F920FB60F9211248F939F93CD
:10055000EF93FF939091690080916A00981771F072
:1005600080916A008F5F8F7080936A00E0916A00CB
:10057000F0E0E559FF4F80818CB901C05598FF919B
:10058000EF919F918F910F900FBE0F901F90189534
:1005900090917B0080917C00981711F480E0089581
:1005A00080917C008F5F8F7180937C00E0917C0054
:1005B000F0E0E358FF4F808108951F920F920FB62D
:1005C0000F9211248F939F93EF93FF939CB1E0912F
:1005D0007B00EF5FEF7180917C00E81731F0E093D2
:1005E0007B00F0E0E358FF4F9083FF91EF919F91E4
:1005F0008F910F900FBE0F901F9018950F931F9320
:10060000DF93CF93CDB7DEB761970FB6F894DEBF17
:100610000FBECDBFAB018E010F5F1F4FB8010E940F
:100620003103C8010E94950261960FB6F894DEBFAF
:100630000FBECDBFCF91DF911F910F910895BB9A4F
:1006400083B7896783BF809166008CBF089582EB72
:100650008093670088EA809368008FEF809366003C
:100660000895FB019F01E8944230C4F04532B4F490
:100670004A3029F497FB1EF4909581959F4F642F83
:1006800077270E949E03805D8A330CF0895D8193F9
:10069000CB010097A1F716F45DE251931082C901D6
:1006A0000C948E03FA01CF93FF93EF93223044F121
:1006B000253234F5C22FE894CA3049F497FB3EF452
:1006C00090958095709561957F4F8F4F9F4F2C2F00
:1006D000332744275527FF93EF930E94B203EF91EE
:1006E000FF91605D6A330CF0695D6193B901CA01E5
:1006F000605070408040904051F716F4CDE2C193B5
:1007000010828F919F91CF910C948E03E199FECF2F
:100710009FBB8EBBE09A99278DB30895DC01FC0145
:10072000672F71917723E1F7329704C07C916D9325
:1007300070836291AE17BF07C8F30895AA1BBB1B55
:1007400051E107C0AA1FBB1FA617B70710F0A61BD1
:10075000B70B881F991F5A95A9F780959095BC01F2
:10076000CD010895A1E21A2EAA1BBB1BFD010DC0ED
:10077000AA1FBB1FEE1FFF1FA217B307E407F50751
:1007800020F0A21BB30BE40BF50B661F771F881F2D
:10079000991F1A9469F760957095809590959B01C3
:0C07A000AC01BD01CF010895F894FFCF1B
:00000001FF
